:020000040800F2
:100000006804002005010008D70C00081B0C00083C
:10001000D50C000871010008AB10000800000000BA
:100020000000000000000000000000004510000873
:100030007301000800000000690F00084710000865
:100040001F0100081F0100081F0100081F01000810
:100050001F0100081F0100081F0100081F01000800
:100060001F0100081F0100081F0100081F010008F0
:100070001F0100081F0100081F0100081F010008E0
:100080001F0100081F0100081F0100081F010008D0
:100090001F0100081F0100081F0100081F010008C0
:1000A0001F0100081F0100081F0100081F010008B0
:1000B0001F0100081F0100081F0100081F010008A0
:1000C0001F0100081F0100081F0100081F01000890
:1000D0001F0100081F0100081F0100081F01000880
:1000E0001F0100081F0100081F010008DFF810D0E1
:1000F00000F02CF800480047ED100008AFF3008036
:10010000680400200648804706480047FEE7FEE7EF
:10011000FEE7FEE7FEE7FEE7FEE7FEE7FEE7FEE7B7
:10012000A9100008ED000008D2B201E000F8012B90
:10013000491EFBD270470022F6E710B513460A4667
:1001400004461946FFF7F0FF204610BD064C074D48
:1001500006E0E06840F0010394E807009847103497
:10016000AC42F6D3FFF7C6FF3C1700085C17000847
:10017000FEE7704772B6FEE770B5044600F004F97A
:100180000546601C02D004480078044400F0FCF8E6
:10019000401BA042FAD370BD000000202DE9F84FAB
:1001A000DFF8B891002409F1040A0AF1040B234690
:1001B0000F270BF1040EC9E00125A5402A40AA42F1
:1001C0007DD1674ED1F804C0ACEB0608B44532D0FF
:1001D00014DCBCF1030F3AD009DCBCF1000F2AD0CB
:1001E000BCF1010F1CD0BCF1020F31D11DE0BCF1FC
:1001F000110F17D0BCF1120F2AD119E0B8F5881FE2
:1002000019D006DCB8F5803F15D0B8F5801F1FD196
:1002100011E0B8F5001F0ED0B8F5041F18D10AE0A0
:10022000CB6815E0CB681B1D12E0CB6808330FE0EC
:10023000CB680C330CE08B682BB1012B4FF008031B
:1002400003D0456104E0042302E0056100E00023DF
:10025000FF2A01D8064601E000F104064FEA8405B2
:1002600001D9A5F12005D6F8008007FA05FC28EA97
:100270000C0803FA05F548EA0508C6F800804D6841
:10028000ED0062D5374DAE6946F00106AE61AD694D
:1002900024F0030605F001050095334D06EB050C2F
:1002A000DCF80850A607360F07FA06F825EA080515
:1002B000DFF8B880404503D14FF0000817E044E074
:1002C000DFF8AC80404502D14FF001080FE0DFF8C5
:1002D000A480404502D14FF0020808E0DFF8988082
:1002E000404502D14FF0030801E04FF0040808FA3E
:1002F00006F848EA0508CCF808804D68D9F800608F
:10030000ED034D4601D5164300E096432E604D683F
:10031000DAF80060AD03554601D5164300E0964378
:100320002E604D68DBF80060ED025D4601D5164396
:1003300000E096432E604D68DEF80060AD02754621
:1003400001D5164300E096432E60641C0D682A46D2
:10035000E5407FF431AFBDE8F88F000000040140B4
:100360000000111000100240000001400008014090
:10037000000C014000100140001401400AB101616D
:1003800070470904FBE700000148806870470000DF
:1003900000000020024881680278114481607047A3
:1003A00000000020074810B5016841F0100101600D
:1003B000032000F06BF8002000F006F800F024F8AD
:1003C000002010BD0020024070B50D4D04464FF4D2
:1003D0007A712878B1FBF0F00A490968B1FBF0F0B6
:1003E00000F007FC48B9102C07D200222146501E0D
:1003F00000F02CF800206C6070BD012070BD000082
:10040000000000200C0000200E4808B5816941F072
:1004100001018161816901F001010091C16941F02F
:100420008051C161C06900F080500090052000F04B
:100430002DF80548416821F0E06141F0007141600C
:1004400008BD00000010024000000140F0B40E4B57
:100450001B680C46C3F30223C3F10705042D00D922
:100460000425191D072901D2002300E0DB1E012607
:1004700006FA05F1491E214099409E40761E16401D
:100480003143F0BC00F012BE0CED00E0064900F074
:10049000070208684FF6FF03184040EA0220034AAB
:1004A00010430860704700000CED00E00000FA0502
:1004B0002DE9F0470F46050061D0434E306800F04B
:1004C0000700B84209D2306820F007003843306096
:1004D000306800F00700B84251D128683B4C8107D2
:1004E00012D5400703D5606840F4E060606028786A
:1004F000000703D5606840F4605060606068A968D8
:1005000020F0F000084360602878C00728D06868B1
:10051000012810D02168022810D0890700292EDA7E
:10052000616821F0030101436160FFF72DFF804600
:1005300041F288390DE021688903EFE78901EDE791
:10054000FFF722FFA0EB0801494502D90320BDE8CF
:10055000F0876068696800F00C00B0EB810FEFD1A4
:10056000306800F00700B8420BD9306820F007006F
:1005700038433060306800F00700B84201D00120F5
:10058000E5E72878400705D56068E96820F4E06071
:10059000084360602878000706D56068296920F460
:1005A000605040EAC100606000F018F86168084AD5
:1005B000C1F30311515CC840064908600648006851
:1005C000FFF702FF0020C2E70020024000100240B7
:1005D0003C1100080C0000200400002012A185B08E
:1005E0000FC98DE80F0014A0144A006804905168E8
:1005F000134801F00C03042B10D0082B0ED1C1F3CB
:100600008343C9031DF803000AD5516804AAC1F346
:100610004041515C0A4A5043B0FBF1F005B07047CD
:1006200008494843FAE700000203040506070809E1
:100630000A0B0C0D0E0F10100102000000100240FA
:1006400000127A0000093D002DE9F84F040070D037
:100650002078C04DC00749D06868C0F381000128E8
:1006600007D06868C0F38100022809D16868C00318
:1006700006D52868800339D560680028E7D035E0C2
:100680006068B0F5803F0BD010B1B0F5A02F11D04D
:10069000286820F480302860286820F4802002E058
:1006A000286840F480302860606890B1FFF76CFEE5
:1006B00006460AE0286840F480202860F0E700BF82
:1006C000FFF762FE801B642873D828688003F7D583
:1006D0000CE0FFF759FE064605E000BFFFF754FEA9
:1006E000801B6428F0D828688003F7D420789A4EBD
:1006F00080074FF001094FF0000839D5686810F005
:100700000C0F07D06868C0F38100022809D168681F
:10071000C00306D42868800714D52069012808D1B1
:1007200010E02069B0B1C6F80090FFF72DFE074633
:1007300005E00AE1FFF728FEC01B0228C4D828689C
:100740008007F7D52868616920F0F80040EAC10009
:1007500028600DE0C6F80080FFF716FE074604E0AB
:10076000FFF712FEC01B022823D828688007F7D4A1
:10077000207800072CD57948A169D9B1C0F800903C
:10078000FFF702FE074604E0FFF7FEFDC01B02284C
:100790000FD8686A8007F7D571484FF4FA5100689E
:1007A000B0FBF1F0009000BF0098411E0091FAD21A
:1007B0000EE080E0C0F80080FFF7E6FD074604E0A9
:1007C000FFF7E2FDC01B022875D8686A8007F7D4DE
:1007D0002078400760D5E8690027C00008D4E869A0
:1007E00040F08050E861E869012700F080500090F7
:1007F0005C480168C90513D40168834641F48071DF
:100800000160FFF7C1FD824606E000BFFFF7BCFDB7
:10081000A0EB0A0064284ED8DBF80000C005F5D52F
:10082000E06801280AD008B1052813D0286A20F012
:1008300001002862286A20F0040002E0286A40F0E3
:1008400001002862E06841F2883B98B1FFF79CFD07
:1008500082460BE0286A40F004002862EEE700BF01
:10086000FFF792FDA0EB0A0159455AD8286A800784
:10087000F6D50CE0FFF788FD824605E0FFF784FD22
:10088000A0EB0A0159454CD8286A8007F6D41FB15D
:10089000E86920F08050E861E06988B36968C1F3D5
:1008A0008101022944D00228C6F8608004D0FFF7F5
:1008B0006BFD044638E034E0FFF766FD074604E0D0
:1008C000FFF762FDC01B02282BD828688001F7D4EF
:1008D000206AB0F5803F05D16868A16820F4003037
:1008E00008436860D4E908010843696821F4741179
:1008F00008436860C6F86090FFF746FD044606E0CE
:1009000025E000BFFFF740FD001B022809D828683A
:100910008001F7D51BE000BFFFF736FD001B022862
:1009200002D90320BDE8F88F28688001F4D40EE0D6
:100930000128F7D06868226A00F48031914204D11E
:10094000616A00F47010884201D00120EAE70020BB
:10095000E8E70000001002400000424280044242EA
:100960000C0000200070004070B5040009D0606ADF
:10097000002540B125616561A56294F8510040B140
:100980000CE0012070BD6068B0F5827FF4D0E561B5
:10099000F2E784F85050204600F040F8022084F836
:1009A00051002068016821F040010160A088218980
:1009B00000F4827001F404410843A18901F400614C
:1009C0000843217C01F002010843217D01F001016F
:1009D0000843218B01F400710843217F01F03801A5
:1009E000084394F8201001F080010843218D01F4A0
:1009F0000051084321680860A069042101EA104001
:100A0000216848602068C16921F40061C1616565A1
:100A1000012084F85100002070BD000030B585B081
:100A200000240094019402940394006814498842BD
:100A300023D11448816941F480518161816901F4B5
:100A400080510491816941F00401816180690E4DFA
:100A500000F004000490B0200090022001900320D8
:100A6000039069462846FFF799FB4020CDE9000432
:100A7000694628460294FFF791FB05B030BD00009F
:100A80000030014000100240000801402DE9F84FFD
:100A9000044690F8500000271D4616468946012856
:100AA0000DD04FF0010B84F850B0FFF76DFC80467D
:100AB00094F85100BA46012804D0022793E002209E
:100AC000BDE8F88FB9F1000F73D0002E71D003206C
:100AD00084F85100C4F854A0C4F83090A686E68685
:100AE000C4F838A0A4F83CA0A4F83EA0C4F844A0E0
:100AF000C4F840A0A068B0F5004F09D12068016893
:100B000021F0400101602068016841F480410160EA
:100B100020680168490603D4016841F04001016082
:100B2000E068B0F5006F606803D030B3012E24D0C8
:100B300041E008B1012E1CD1206B21680088C860FB
:100B400006E020688168890709D5216B0988C160A2
:100B5000206B801C2063E08E401EE08609E0FFF7DA
:100B600013FCA0EB0800A84202D3681C01D031E0BE
:100B70007DB3E08E0028E4D120E0206B216800786E
:100B8000087306E020688168890709D5216B097818
:100B90000173206B401C2063E08E401EE0860AE05B
:100BA000FFF7F2FBA0EB0800A84203D3681C02D0B9
:100BB00010E017E06DB1E08E0028E3D142462946EF
:100BC000204600F0D2F908B120206065A06818B175
:100BD00006E0FFE7032706E02068C1688068009010
:100BE000606D00B1012784F851B084F850A03846F8
:100BF00066E710B5401EB0F1807F01D3012010BD23
:100C00004FF0E02460610F21601700F04FFA0020E0
:100C1000A06107202061002010BDFEE730B585B03F
:100C2000002418480094019402940394816941F0CF
:100C300010018161816901F010010491816941F025
:100C400020018161816901F020010491816941F0F5
:100C50000401816180690C4D00F0040004900022C1
:100C60000C212846FFF78AFB0C2000900120CDE9DB
:100C700001040220039069462846FFF78FFA05B069
:100C800030BD00000010024000080140104810B5BF
:100C90000E4901604FF48271416000218160C160A2
:100CA0004FF480220161C0E905120822C0E9072142
:100CB000416281620A21C162FFF756FE002803D01B
:100CC000BDE81040FFF756BA10BD000000300140EB
:100CD00010000020FEE7FEE770B5002404F1B0002C
:100CE000C0B2002100F026F90021084600F022F9E8
:100CF0000021102000F01EF900250121002000F045
:100D000019F96D1CEDB2802DF7D3641CE4B2082CE8
:100D1000E4D370BD10B5494C012204212046FFF7F1
:100D20002DFB6420FFF728FA002204212046FFF75C
:100D300025FB6420FFF720FA012204212046FFF75B
:100D40001DFB0021AE2000F0F5F80021084600F060
:100D5000F1F80021102000F0EDF80021402000F013
:100D6000E9F80021812000F0E5F80021CF2000F013
:100D7000E1F80021A12000F0DDF80021C82000F0FA
:100D8000D9F80021A62000F0D5F80021A82000F015
:100D9000D1F800213F2000F0CDF80021D32000F051
:100DA000C9F80021084600F0C5F80021D52000F060
:100DB000C1F80021802000F0BDF80021D92000F00A
:100DC000B9F80021F12000F0B5F80021DA2000F098
:100DD000B1F80021122000F0ADF80021DB2000F076
:100DE000A9F80021402000F0A5F80021202000F003
:100DF000A1F80021022000F09DF800218D2000F0D4
:100E000099F80021142000F095F80021A42000F0AA
:100E100091F80021A62000F08DF80021AF2000F00D
:100E200089F80021AF2000F085F8FFF755FF002179
:100E3000BDE81040084600F003B80000000801407B
:100E400010B50446B031C8B2002100F073F810208C
:100E500040EA1410002100F06DF804F00F00BDE826
:100E6000104040F00100002100F064B82DE9F0418D
:100E7000203A00240D468046D7B27F2803D90020AF
:100E80008D1C8046EDB22946FFF7DAFF0F4E00BFFA
:100E900004EB07100121305C00F04CF8641CE4B254
:100EA000082CF5D36D1CE9B24046FFF7C9FF0024BA
:100EB00004EB071030440121007A00F03BF8641C79
:100EC000E4B2082CF4D3BDE8F08100004C11000816
:100ED0002DE9F0478046002608981D4691468A462F
:100EE0003446470821E0281B401EC1B20A2000F00A
:100EF0001DF9B9FBF0F00A21B0FBF1F201FB120081
:100F000026B9691E8C4201DA30B101263030C2B2F6
:100F100007FB0480C0B203E007FB0480C0B22022BC
:100F20005146FFF7A3FF641CE4B2AC42DBD3BDE83B
:100F3000F087000013B50A4C09B1012200E000223D
:100F400008212046FFF71AFA642301226946054862
:100F5000FFF79CFD012208212046FFF70FFA1CBD78
:100F60000008014010000020704738B50B46009281
:100F700004460022802100F009F8002804D0606DAA
:100F800040F020006065032038BD00002DE9F843E3
:100F90001E46914688460446089DFFF7F5F9401B1A
:100FA000351AFFF7F1F9074625480068C0F3CB3042
:100FB000684338E0701C37D0FFF7E6F9C01BA84241
:100FC00003D215B1009860B32CE02068416821F08D
:100FD000E00141606068B0F5827F0BD1A068B0F598
:100FE000004F02D0B0F5806F04D12068016821F075
:100FF00040010160A06AB0F5005F09D12068016876
:1010000021F4005101602068016841F40051016041
:10101000012084F85100002084F850000320BDE82E
:10102000F8830025401E00902068816838EA01009E
:1010300004D000214945BDD10020F0E70121F9E7A6
:101040000C0000207047FFF7A5B930B58FB02821FC
:101050006846FFF770F814210AA8FFF76CF8012121
:101060000804CDE900100024029402250491CDE982
:1010700007504FF4E01009906846FFF7E5FA08B111
:1010800072B6FEE70F20CDE90A054FF48060CDE986
:101090000C4002210AA80E94FFF70AFA002801D09A
:1010A00072B6FEE70FB030BD7047FEE70907090EC4
:1010B000002804DB00F1E02080F80014704700F005
:1010C0000F0000F1E02080F8141D704702E008C80E
:1010D000121F08C1002AFAD170477047002001E0B2
:1010E00001C1121F002AFBD17047000008B5FFF7AD
:1010F00059F9FFF7AAFFFFF791FDFFF7C7FDFFF7CB
:1011000009FE094C10264FF4FA6500BFFFF7E4FD15
:1011100000210523224608460096FFF7D9FE2846FF
:10112000FFF72AF8F2E70000283401000246012008
:1011300000E05043491EC9B2FBD2704700000000D6
:101140000000000001020304060708090000000077
:10115000000000000000000000000000000000F897
:1011600000000000000000333000000000100C06FA
:10117000100C0600000000000000000040C0784095
:10118000C0784000043F04043F040400007088FC61
:1011900008300000001820FF211E0000F008F000B9
:1011A000E018000000211C031E211E0000F008882A
:1011B000700000001E2123241927211010160E0094
:1011C000000000000000000000000000000000E03F
:1011D0001804020000000007182040000002041854
:1011E000E00000000040201807000000404080F0B0
:1011F000804040000202010F01020200000000F0E6
:10120000000000000101011F0101010000000000B9
:101210000000000080B0700000000000000000002E
:1012200000000000000101010101010100000000B7
:10123000000000000030300000000000000000004E
:1012400080601804006018060100000000E010082B
:101250000810E000000F102020100F00001010F800
:10126000000000000020203F20200000007008083F
:1012700008887000003028242221300000300888BF
:10128000884830000018202020110E000000C020E7
:1012900010F8000000070424243F240000F8088808
:1012A000880808000019212020110E0000E0108895
:1012B00088180000000F112020110E0000380808C7
:1012C000C83808000000003F0000000000708808D7
:1012D00008887000001C222121221C0000E0100858
:1012E0000810E0000000312222110F00000000C0B1
:1012F000C00000000000003030000000000000804E
:10130000000000000000806000000000000080403D
:101310002010080000010204081020004040404056
:1013200040404000040404040404040000081020A9
:1013300040800000002010080402010000704808EE
:101340000808F0000000003036010000C030C82856
:10135000E810E0000718272423140B000000C03811
:10136000E0000000203C23020227382008F888888B
:1013700088700000203F202020110E00C030080897
:1013800008083800071820202010080008F808086E
:101390000810E000203F202020100F0008F8888867
:1013A000E8081000203F20202320180008F8888833
:1013B000E8081000203F200003000000C0300808AB
:1013C0000838000007182020221E020008F8080034
:1013D0000008F808203F210101213F20000808F8FB
:1013E000080800000020203F20200000000008081E
:1013F000F8080800C08080807F00000008F888C0DE
:1014000028180800203F20012638200008F808008E
:1014100000000000203F20202020300008F8F800C5
:10142000F8F80800203F003F003F200008F830C0D7
:101430000008F808203F200007183F00E0100808C7
:101440000810E0000F10202020100F0008F80808F6
:101450000808F000203F210101010000E010080809
:101460000810E0000F18242438504F0008F888882E
:1014700088887000203F2000030C3020007088080E
:10148000080838000038202121221C00180808F81C
:10149000080818000000203F2000000008F808009D
:1014A0000008F808001F202020201F00087888006E
:1014B00000C83808000007380E010000F80800F8DE
:1014C0000008F800033C0700073C03000818688088
:1014D0008068180820302C03032C30200838C800FE
:1014E000C83808000000203F20000000100808084D
:1014F000C83808002038262120201800000000FEEF
:10150000020202000000007F40404000000C30C09A
:1015100000000000000000010638C00000020202C6
:10152000FE000000004040407F0000000000040278
:1015300002020400000000000000000000000000A3
:101540000000000080808080808080800002020493
:10155000000000000000000000000000000080808B
:10156000808000000019242222223F2008F80080F9
:1015700080000000003F112020110E0000000080BC
:1015800080800000000E112020201100000000804B
:101590008088F800000E112020103F20000080807D
:1015A00080800000001F222222221300008080F091
:1015B000888888180020203F2020000000008080BC
:1015C00080808000006B94949493600008F8008001
:1015D00080800000203F210000203F20008098985C
:1015E000000000000020203F2020000000000080BC
:1015F0009898000000C08080807F000008F80000FC
:1016000080808000203F24022D302000000808F850
:10161000000000000020203F20200000808080800B
:1016200080808000203F20003F20003F808000809D
:1016300080800000203F210000203F2000008080AB
:1016400080800000001F202020201F00808000805C
:101650008000000080FFA12020110E00000000800B
:1016600080808000000E112020A0FF8080808000FC
:101670008080800020203F21200001000000808029
:10168000808080000033242424241900008080E01E
:10169000808000000000001F2020000080800000EB
:1016A00000808000001F202020103F2080808000CC
:1016B0000080808000010E300806010080800080DC
:1016C000008080800F300C030C300F000080800001
:1016D000808080000020312E0E312000808080002C
:1016E0000080808080818E701806010000808080DC
:1016F000808080000021302C22213000000000007A
:10170000807C020200000000003F4040000000001A
:10171000FF00000000000000FF0000000002027C4B
:10172000800000000040403F000000000006010172
:101730000202040400000000000000005C17000822
:101740000000002010000000CC1000086C170008FA
:101750001000002058040000DC1000080100000008
:0C17600010000000000000000024F40055
:04000005080000ED02
:00000001FF
